:020000040800F2
:10000000580400200101000827040008A10200088C
:100010002304000885010008790A00080000000098
:100020000000000000000000000000008105000842
:100030008901000800000000290400086D0600087E
:100040001B0100081B0100081B0100081B01000820
:100050001B0100081B0100081B0100081B01000810
:100060001B0100081B0100081B0100081B01000800
:100070001B0100081B0100081B0100081B010008F0
:100080001B0100081B0100081B0100081B010008E0
:100090001B0100081B0100081B0100081B010008D0
:1000A0001B0100081B0100081B0100081B010008C0
:1000B0001B0100081B0100081B0100081B010008B0
:1000C0001B0100081B0100081B0100081B010008A0
:1000D0001B0100081B0100081B0100081B01000890
:1000E0001B0100081B0100081B010008DFF80CD0F1
:1000F00000F036F800480047D110000858040020EE
:100100000648804706480047FEE7FEE7FEE7FEE7B1
:10011000FEE7FEE7FEE7FEE7FEE7FEE77106000802
:10012000ED000008421C10F8011B0029FBD1801AC9
:10013000704730B50B46014600202022012409E01B
:1001400021FA02F59D4205D303FA02F5491B04FA90
:1001500002F52844151EA2F10102F1DC30BD0000B9
:10016000064C074D06E0E06840F0010394E8070004
:1001700098471034AC42F6D3FFF7BCFFB811000823
:10018000D811000800BFFEE770472DE9F041024694
:1001900000250026002000230024002791F803C03A
:1001A0000CF00F0591F803C00CF0100CBCF1000F1F
:1001B00003D091F802C04CEA050591F800C0BCF1EB
:1001C000000F31D0146800202BE04FF0010C0CFA26
:1001D00000F3B1F800C00CEA03069E4220D1830070
:1001E0004FF00F0C0CFA03F7BC4305FA03FC4CEA82
:1001F000040491F803C0BCF1280F06D14FF0010CA4
:100200000CFA00FCC2F814C00AE091F803C0BCF17B
:10021000480F05D14FF0010C0CFA00FCC2F810C0D9
:10022000401C0828D1D31460B1F800C0BCF1FF0F06
:1002300034DD546800202EE000F1080C4FF0010876
:1002400008FA0CF3B1F800C00CEA03069E4221D173
:1002500083004FF00F0C0CFA03F7BC4305FA03FCC4
:100260004CEA040491F803C0BCF1280F05D100F159
:10027000080C08FA0CF8C2F8148091F803C0BCF11D
:10028000480F07D100F1080C4FF0010808FA0CF8EC
:10029000C2F81080401C0828CED35460BDE8F0811D
:1002A00000BFFEE770B502460024002500230020B1
:1002B000958A138B1B0445EA030626F07F4404EA63
:1002C00001068E4201D1012000E0002070BD21B165
:1002D000028842F00102028004E002884FF6FE73B9
:1002E0001A400280704721B1028842F48072028075
:1002F00004E002884FF6FF631A400280704721B184
:10030000028842F40072028004E002884FF6FF5334
:100310001A400280704700002DE9F04385B0044682
:100320000D460026B1460427DFF8CC80A6884FF69C
:10033000C0700640684600F0B9F8DDF808802F4824
:10034000B8FBF0F01FFA80F946EA0906A68020887B
:100350004FF6FE710840208000262949286888420F
:100360000CD828684000B8FBF0F087B2042F00DA00
:1003700004273E4309F10100208427E0E8884BF67A
:10038000FF71884206D1286800EB4000B8FBF0F00E
:1003900087B209E0286800EBC00101EB0010B8FB50
:1003A000F0F087B247F48047C7F30B0008B947F075
:1003B000010747F4004006434FF4967009FB00F034
:1003C0004FF47A7190FBF1F0401C2084A6832088C2
:1003D00040F00100208026884FF6F5300640A888BE
:1003E0006989084306432680A88929890843208112
:1003F00005B0BDE8F083000000127A0040420F0013
:10040000A08601000146088AC0B2704712B141F0CF
:10041000010102E04FF6FE7319400182704701822C
:10042000704700BFFEE770477047000029B1064AD9
:10043000D2690243044BDA6104E0034AD269824381
:10044000014BDA61704700000010024029B1064AF2
:1004500012690243044B1A6104E0034A12698243A1
:10046000014B1A61704700000010024029B1064A92
:1004700092690243044B9A6104E0034A9269824301
:10048000014B9A61704700000010024029B1064AF2
:10049000D2680243044BDA6004E0034AD268824324
:1004A000014BDA60704700000010024030B50021B7
:1004B0000022002400232D4D6D6805F00C0121B1B0
:1004C000042905D0082923D105E0294D056022E043
:1004D000274D05601FE0254D6D6805F47012234D12
:1004E0006D6805F48034022505EB92421CB9214D5C
:1004F000554305600BE01D4D6D6805F400351DB1D9
:100500001C4D5543056002E0194D5543056002E05E
:10051000174D056000BF00BF144D6D6805F0F00178
:100520000909154D6B5C0568DD4045600F4D6D6830
:1005300005F4E061090A104D6B5C4568DD4085609B
:100540000A4D6D6805F46051C90A0B4D6B5C456836
:10055000DD40C560054D6D6805F44041890B074DD0
:100560006B5CC568B5FBF3F5056130BD001002405A
:1005700000127A0000093D000D0000201D0000203F
:10058000704710B500F002F810BD00000CB5002057
:10059000019000903348006840F480303149086091
:1005A00000BF3048006800F4003000900198401C03
:1005B0000190009818B90198B0F5A06FF1D12948C1
:1005C000006800F4003010B10120009001E000202C
:1005D00000900098012843D12348006840F01000A3
:1005E000214908600846006820F0030008600846BA
:1005F000006840F0020008601A48406819494860E5
:100600000846406848600846406840F4806048609A
:100610000846406820F47C1048600846406840F472
:10062000E81048600846006840F08070086000BF2D
:100630000C48006800F000700028F9D009484068B4
:1006400020F00300074948600846406840F0020077
:10065000486000BF0348406800F00C000828F9D14A
:100660000CBD000000100240002002407047000056
:1006700010B51348006840F00100114908600846B1
:100680004068104908400E494860084600680E4915
:1006900008400B4908600846006820F48020086084
:1006A0000846406820F4FE0048604FF41F00886050
:1006B000FFF767FF4FF000600449086010BD0000BD
:1006C000001002400000FFF8FFFFF6FE08ED00E01A
:1006D00021B1028842F00102028004E002884FF654
:1006E000FE731A400280704710B504466848844281
:1006F00008D10121C014FFF7C9FE0021E014FFF763
:10070000C5FEC4E0B4F1804F08D101210846FFF7CF
:100710009DFE00210120FFF799FEB8E05D4884426C
:1007200008D101210220FFF791FE00210220FFF7EE
:100730008DFEACE05848844208D101210420FFF727
:1007400085FE00210420FFF781FEA0E0534884428B
:1007500008D101210820FFF779FE00210820FFF7CA
:1007600075FE94E04E48844208D101211020FFF725
:100770006DFE00211020FFF769FE88E049488442A1
:1007800008D101212020FFF761FE00212020FFF782
:100790005DFE7CE04448844208D101214014FFF70B
:1007A00075FE00216014FFF771FE70E03F4884423F
:1007B00009D10121C804FFF769FE00214FF4002090
:1007C000FFF764FE63E03A48844209D1012108053D
:1007D000FFF75CFE00214FF48010FFF757FE56E054
:1007E0003448844209D101214805FFF74FFE00211A
:1007F0004FF40010FFF74AFE49E02F48844208D129
:1008000001214020FFF722FE00214020FFF71EFEBD
:100810003DE02A48844208D101218020FFF716FEDE
:1008200000218020FFF712FE31E02548844208D1E4
:1008300001218015FFF70AFE0021A015FFF706FE33
:1008400025E02048844209D101210804FFF71EFE5B
:1008500000214FF48030FFF719FE18E01A48844257
:1008600009D101214804FFF711FE00214FF40030A7
:10087000FFF70CFE0BE01548844208D101218804E3
:10088000FFF704FE00214FF48020FFF7FFFD10BDAD
:10089000002C01400004004000080040000C004013
:1008A000001000400014004000340140004C0140A2
:1008B000005001400054014000180040001C00405E
:1008C0000020004000400140004401400048014039
:1008D0000146888C7047818470470000002202889E
:1008E0001D4B98420ED01D4B98420BD0B0F1804F5B
:1008F00008D01B4B984205D01A4B984202D01A4B95
:10090000984204D14FF68F731A404B881A43174B05
:10091000984207D0164B984204D04FF6FF431A4036
:10092000CB881A4302808B8883850B8803850A4B0A
:1009300098420BD0094B984208D00E4B984205D0F4
:100940000D4B984202D00D4B984201D10B7A038691
:100950000123838270470000002C014000340140D5
:100960000004004000080040000C0040001000405F
:100970000014004000400140004401400048014094
:1009800021B1828942F40052828104E082894DF6CD
:10099000FF731A40828170472DE9F04786B0054603
:1009A0000E460024A24600BFA1460027B08900B130
:1009B00000BF2F462C8A4CF6FF700440F088044399
:1009C0002C82AC894EF6F3100440B088318908437C
:1009D000718908430443AC81AC8A4FF6FF40044060
:1009E000B0890443AC8201A8FFF760FD1F4887422D
:1009F00002D1DDF810A001E0DDF80CA0A88900F418
:100A0000004040B10AEBCA0000EB0A10316849000F
:100A1000B0FBF1F807E00AEBCA0000EB0A103168FE
:100A20008900B0FBF1F86420B8FBF0F00401200964
:100A3000642101FB1089A88900F4004040B13220F4
:100A400000EBC900B0FBF1F000F00700044308E040
:100A5000322000EB09106421B0FBF1F000F00F0030
:100A600004432C8106B0BDE8F08700000038014047
:100A7000C1F308028280704700BFFEE70FB4084B45
:100A800010B504A902AA039800F0FCF8044602A9D4
:100A9000002000F0A1F9204610BC5DF814FB000016
:100AA000D90D000802E008C8121F08C1002AFAD1B7
:100AB00070477047002001E001C1121F002AFBD1DE
:100AC0007047000010B501210820FFF7CFFC4FF45C
:100AD000E0400A490880032088701020C870084848
:100AE000FFF753FBE0200549088003208870282089
:100AF000C8700348FFF749FB10BD0000000000204C
:100B0000000C014000B585B001218805FFF78EFC7F
:100B100001210820FFF7AAFC4FF44060ADF8100057
:100B200003208DF812001C208DF8130004A9104832
:100B3000FFF72BFB0020ADF804004BF6FF70ADF87B
:100B400006000C4800900020ADF808004FF48040EB
:100B5000ADF80C000020ADF80A0069460648FFF722
:100B6000DBFB01210448FFF7B2FB05B000BD00002C
:100B7000000C0140A08601000058004010B54FF065
:100B80008040FFF7B1FD01210846FFF74FFC002030
:100B9000074948804FF6FF708880472008804FF053
:100BA0008040FFF79BFE01218807FFF791FD10BDF4
:100BB0002400002010B501214804FFF737FC012173
:100BC0000420FFF753FC042012490880032088709A
:100BD0001820C8701048FFF7D8FA08200D4908807F
:100BE000032088700420C8700B48FFF7CEFA4FF43A
:100BF00016500A49086000208880C88008818881D2
:100C00000C2048810648FFF7C7FE01210448FFF782
:100C1000B7FE10BD00000020000801403000002099
:100C20000044004010B5332000F000FA0A2000F024
:100C3000E2F8322000F0FAF9322000F0DCF8282047
:100C400000F0F4F9322000F0D6F8012000F0EEF9BF
:100C5000322000F0D0F8062000F0E8F9322000F051
:100C6000CAF80C2000F0E2F9322000F0C4F80220AB
:100C700000F0DCF9322000F0BEF8802000F0D6F958
:100C800010BD00002DE9FF4F89B09B4604460025AA
:100C900006E025280BD05A460B999047641C6D1C22
:100CA00020780028F5D10DB02846BDE8F08F002748
:100CB000B8460122474900E0074314F8013F203BB2
:100CC00002FA03F00842F7D120782E2819D114F83F
:100CD000010F47F004072A280ED06FF02F0220786A
:100CE000A0F1300109290CD808EB880102EB410181
:100CF00000EB0108641CF2E70A98641C50F8048BAE
:100D00000A9020780028CED0642808D0692806D020
:100D100075281ED05A460B9990476D1C58E00A99C9
:100D20004FF00A0901C90A91002802DA40422D2138
:100D300002E0390504D52B218DF82010012103E0B4
:100D4000F90704D02021F7E78A4608AE0DE000211C
:100D5000FAE70A994FF00A0901C90A91F7E74946EB
:100D6000FFF7E7F9303106F8011D0028F7D1ADEBA8
:100D7000060000F12009780701D44FF00108C845AA
:100D800002DDA8EB090000E000208046002706E015
:100D900008A85A46C05D0B9990476D1C7F1C5745AB
:100DA000F6DB04E030205A460B9990476D1CB8F1F1
:100DB0000001A8F10108F5DC05E016F8010B5A4620
:100DC0000B9990476D1CB9F10001A9F10109F4DC00
:100DD000641C65E7092801000A68531C0B60107049
:100DE000704701460A1102EB8202500001F00F0227
:100DF0000244D0B2704710B504460DE000214FF018
:100E00008040FFF768FD00BF4FF08040FFF760FDB6
:100E1000B0F57A7FF8DB641E002CEFD110BD10B561
:100E200000240421682000F048F804462046FFF71B
:100E3000D8FF10BD10B500240321682000F03DF854
:100E400004462046FFF7CDFF10BD10B50024022157
:100E5000682000F032F8044604F03F00FFF7C1FFBD
:100E600010BD10B500240121682000F026F80446CA
:100E70002046FFF7B6FF10BD10B5002405216820FD
:100E800000F01BF804462046FFF7ABFF10BD10B57D
:100E900000240021682000F010F804462046FFF7E7
:100EA000A0FF10BD10B500240621682000F005F851
:100EB00004462046FFF795FF10BD70B505460C4669
:100EC00000F050F81021284600F024F8204600F0E9
:100ED00063F800F059F800F045F81121284600F0B9
:100EE00019F800F005F8064600F04EF8304670BDDF
:100EF00010B500BF05490648FFF7D4F90028F9D01E
:100F00000348FFF77FFA0446204610BD4000030067
:100F10000058004070B505460C466806060E102CB9
:100F20000BD1002231460C48FFF770FA00BF0B4985
:100F30000948FFF7B7F90028F9D0112C0BD101228D
:100F400031460548FFF762FA00BF05490248FFF73E
:100F5000A9F90028F9D070BD0058004082000700B0
:100F60000200030010B501210548FFF7BCF900BFDE
:100F700004490348FFF796F90028F9D010BD000096
:100F8000005800400100030010B501210148FFF79F
:100F9000B6F910BD0058004010B50446214605487A
:100FA000FFF73DFA00BF04490248FFF77BF900282C
:100FB000F9D010BD005800408400070070B5054608
:100FC0000C46FFF7CFFF10212846FFF7A3FF20466E
:100FD000FFF7E2FFFFF7D8FF70BD00007CB50446C5
:100FE0000D46084903C9CDE90001022C00DD0124AA
:100FF0001DF814102944C9B241F0800000F016F821
:101000007CBD0000B011000870B505460024002624
:101010002846FFF787F8C6B200BF04E0285D00F05D
:1010200028F8601CC4B2B442F8DB70BDF8B50446C1
:1010300004F0F007F02000EA041647F00C008DF8E9
:10104000000047F008008DF8010046F00C008DF814
:10105000020046F008008DF80300002506E01DF8A8
:1010600005102720FFF7AAFF681CC5B2042DF6DB88
:10107000F8BDF8B5044604F0F006F02000EA0417C5
:1010800046F00D008DF8000046F009008DF80100D3
:1010900047F00D008DF8020047F009008DF80300BD
:1010A000002506E01DF805102720FFF787FF681CC4
:1010B000C5B2042DF6DBF8BD10B5044603E014F804
:1010C000010BFFF7D6FF20780028F8D110BD0000F3
:1010D0000EB500240025002600BF00BF00BF00BFE2
:1010E000FFF74CFDFFF7EEFCFFF764FDFFF70AFD8D
:1010F00017A000F04BF8FFF795FD17A0FFF7DCFFF6
:1011000017A000F043F819A000F040F81EE0FFF728
:10111000C9FEFFF7B1FEFFF782FEFFF78BFEFFF778
:1011200094FE0646FFF79DFE0546FFF7B0FE044617
:101130002B46324610A101A80094FFF79FFC032123
:101140000120FFF74BFF01A8FFF75EFFDFE700007C
:10115000426567696E00000048656C6C6F000000B6
:1011600053657420646174650A000000536574203F
:1011700054696D65200A0000252E32643A252E320E
:10118000643A252E3264200A0000000010B504469F
:1011900007E014F8011B0548FFF76AFC0A20FFF777
:1011A0002AFE20780028F4D110BD00000044004041
:1011B0000000400014005400D81100080000002076
:1011C00024000000A40A0008FC11000824000020EC
:1011D00034040000B40A0008000000000000000011
:1011E00000000000010000000001020304010203EE
:0C11F000040607080902040608000000BD
:04000005080000ED02
:00000001FF
